:0600000002006B0202CBBE
:03000B0002055497
:0300130002031EC7
:01001B0032B2
:03002300020233A3
:03002B00020CEADA
:01003300329A
:03003B000203714C
:030043000201F4C3
:01004B003282
:0300530002027F27
:01005B003272
:03006300020CE8A4
:030066000203C5CD
:02006900E4733E
:0D006B00758126121124E5826003020066F3
:10007800791DE94400601B7A0190135B78DF75A055
:1000880000E493F2A308B8000205A0D9F4DAF275E7
:02009800A0FFC7
:06009A00E478FFF6D8FD3A
:1000A0007800E84400600A799475A000E4F309D868
:1000B000FC784BE84400600C7901900094E4F0A3D4
:0400C000D8FCD9FA95
:0E00C4007808E4F608F608F608F6780C7600E0
:0200D200C20268
:0200D400C20464
:0200D600C20561
:0300D800020066BD
:1000DC00901215E493FE7401939000947402F08EC8
:1000EC00821203D8901217E493FE7401939000943B
:1000FC007402F08E820203D8901215E493FE740100
:10010C00938E8212048FE58224FFE433FF9000E289
:10011C00E0601BEF70189000C8E4F5F0C007120601
:10012C0011D0079000E1E0FEB40100E433F0900040
:10013C00E2EFF09000E1E0700122901217E493FEE0
:10014C007401938E8212048FE58260012290121743
:10015C00E493FE7401938E8212048FE58260EE901C
:10016C0000C8E4F5F0120611901217E493FE740126
:10017C00939000947401F08E821203D87E007F005D
:10018C00C3EE9403EF648094805048901217E4936C
:10019C00FC740193900095E4F08C82C007C00612A9
:1001AC0004DF900032E4F5F0120611901217E4937C
:1001BC00FC7401939000957401F08C821204DF9012
:1001CC000064E4F5F0120611D006D0070EBE00B0A4
:1001DC000F80AD901217E493FE7401939000947409
:0701EC0002F08E820203D82D
:1001F400C021C0E0C0F0C082C083C007C006C005F3
:10020400C004C003C002C001C000C0D075D0001239
:100214000BC0D0D0D000D001D002D003D004D00580
:10022400D006D007D083D082D0F0D0E0D02132C025
:1002340021C0E0C0F0C082C083C007C006C005C0B2
:1002440004C003C002C001C000C0D075D000309803
:1002540005121008C298309905121048C299D0D0DE
:10026400D000D001D002D003D004D005D006D007EE
:10027400D083D082D0F0D0E0D02132C021C0E0C001
:10028400F0C082C083C007C006C005C004C003C05C
:1002940002C001C000C0D075D00030C00512109655
:1002A400C2C030C1051210D6C2C1D0D0D000D00116
:1002B400D002D003D004D005D006D007D083D0829A
:1002C400D0F0D0E0D02132C021C0E0C0F0C082C064
:1002D40083C007C006C005C004C003C002C001C07B
:1002E40000C0D075D0009000F0E0FEA3E0FFC0078E
:1002F400C0068E828F83120069D006D007D0D0D07A
:1003040000D001D002D003D004D005D006D007D04D
:1003140083D082D0F0D0E0D02132C021C0E0C0F040
:10032400C082C083C007C006C005C004C003C002A9
:10033400C001C000C0D075D0009000F2E0FEA3E080
:10034400FFC007C0068E828F83120069D006D007D3
:10035400D0D0D000D001D002D003D004D005D00634
:10036400D007D083D082D0F0D0E0D02132C021C0D9
:10037400E0C0F0C082C083C007C006C005C004C08E
:1003840003C002C001C000C0D075D0009000E3E0FB
:10039400FEA3E04E600E9000E3E0F8A3E0F583884E
:1003A40082120069D0D0D000D001D002D003D00492
:1003B400D005D006D007D083D082D0F0D0E0D021B1
:1003C400321206FD1200DC120104120DE480F875ED
:0303D40082002282
:1003D800E582FF90126993FEEF90124193FF70013E
:1003E80022900094E0FD701BBF0209EEF4FC5292CB
:1003F800EC529322BF0402800122EEF4FC5296ECE8
:10040800529722BD0214BF0207EE4292EE42932297
:10041800BF0439EE4296EE429722BD0116BF02088C
:10042800EEF45292EE429322BF0421EEF45296EE7D
:10043800429722BD0316BF0208EE4292EEF4529391
:1004480022BF0408EE4296EEF4FE529722AF82BF16
:100458000102800FBF02028013BF03028017BF048E
:1004680025801BE5C620E21E539DFB22E5C620E33E
:1004780015539DF722E5C630E20C539DFB22E5C6D5
:1004880030E303539DF722E582FF90121993FEEFA4
:1004980090126993FDEF90124193FF7003F5822249
:1004A800EE600D8E82C007C005120455D005D00736
:1004B8007E00BF0202800ABF03028009BF040C80CD
:1004C80008AE908006AEA08002AEB0ED5E60047506
:1004D80082012275820022E582FF90121993FEEFB5
:1004E80090126993FDEF90124193FFEE600D8E829A
:1004F800C007C005120455D005D007A2AFE433FEEB
:10050800C2AFBF0202800ABF03028017BF04368051
:1005180024900095E07007EDF4FF52908027ED429B
:10052800908022900095E07007EDF4FF52A08015AE
:10053800ED42A08010900095E07007EDF4FF52B0F6
:0B0548008003ED42B0EE6002D2AF2253
:10055400C0D075D00808B8000D09B900090ABA005E
:10056400050BBB00010CD0D032A2AFC2AFA808A9C2
:1005740009AA0AAB0BAC8A8588F092AF30F51274E5
:10058400012C600D08B8000909B900050ABA000178
:100594000BC3EC9406FCECC313FC75F07DE8A4F8E3
:1005A400ADF075F07DE9A42DF9E435F0FD75F07D2D
:1005B400EAA42DFAE435F0FD75F07DEBA42DFB7D66
:1005C40000EC28F582E93DF583EA3DF5F0EB3D22A8
:1005D400A2AFC2AFA808A909AA0AAB0BAC0C92AF90
:1005E40075F020E8A4A8F075F020E9A428F582A805
:1005F400F075F020EAA428F583A8F075F020EBA4A8
:1006040028F9A8F075F020ECA42889F0228582103E
:1006140085831185F012F51312056D858214858387
:100624001585F016F517E5104511451245137001AF
:1006340022A810A911AA12AB1385141885151985BF
:10064400161A85171BE8494A4B60DBC003C002C079
:1006540001C00012056DAC82AD83AEF0FFD000D0B6
:1006640001D002D003ECC39518FCED9519FDEE956D
:100674001AFEEF951BFFC3EC94E8ED9403EE94008F
:10068400EF940040A118B8FF0919B9FF051ABAFF81
:10069400011B881089118A128B1374E82518F51828
:1006A40074033519F519E4351AF51AE4351BF51BED
:1006B400851814851915851A16851B178087AE822F
:1006C400AF83C374019EE49F40022200C374029E60
:1006D400FE74009FFF00BE0005BF00020022000060
:1006E4000000000000000000000000000000000EF8
:1006F400BE00EB0FBF00ED002275A15575A1AA74D1
:10070400F855B94406F5B975A1009013881206C2CC
:10071400120C95120CBF120CAE75DD0075D300756A
:10072400D500759E5D759D0074F055894402F58968
:0F07340053C9EF758C06C28DD2A9D28CD2AF22D9
:10074400AFDBBF08028003020B04900007E0FE7FCA
:1007540000900006E0FD7C004FF522EC4EF5237F6F
:1007640000900001E0F524900000E0FE5460605326
:10077400900000E0FE5306607D00BE2005BD00022F
:10078400800BBE4039BD00367FFF020B067420B5D6
:100794002403020B067421B5240280077422B524B5
:1007A40018800C120D39AD82AE838D07020B06C082
:1007B40007120D68D007020B067FFF020B067FFFAE
:1007C400020B06E52424F45003020B00E524240B59
:1007D40083F582E524241083F583E473E21000D0CA
:1007E40000DAF800E70406060A090B090B08070BF0
:1007F40008090B0B900003E0FEBE0102800ABE0252
:1008040002800FBE036080147525B97526127F120D
:1008140080567525CB7526127F46804C900002E0E9
:10082400FE24FB4036EE2E90082F738008800E8045
:1008340014801A8020752511752613801E75254D88
:100844007526138016752521752613800E752515BA
:10085400752613800675253775261385258285260A
:1008640083E493FF80027FFFBFFF03020B068F0523
:100874007E00C3ED9522EE952350048D228E23AD88
:1008840022AE23C3ED9408EE9400920040067B0848
:100894007C008004AB22AC238B077C00C3EC9F500C
:1008A400198C027B00EC2525F582E43526F583E4DA
:1008B40093F98A828B83F00C80E28F037C00EDC372
:1008C4009BFDEE9CFE8D228E23EF2525F525E43538
:1008D40026F526020B06900002E0FE8E2275230008
:1008E400020B06900096E0900000F0AD22AE23C308
:1008F400ED9401EE94005003020B067F01020B06F7
:10090400900002E0FE900096F0020B06900000E0DA
:10091400541F702F900003E0FD7E00900002E0FC65
:100924007B004206EB4205BE0114BD00119012D2B9
:10093400E493FE30E503020B067FFF020B067FFF04
:10094400020B06900000E0FE53061F7D00BE0277F6
:10095400BD0074900004E0FEBE0102805FBE02028E
:100964008049BE03028033BE0402801DBE81028022
:1009740040BE8202802ABE83028014BE844474BCBA
:1009840055DE4402F5DE020B0653DE73020B0674D9
:10099400BC55D64402F5D6020B0653D673020B0699
:1009A40074BC55D44402F5D4020B0653D473020B21
:1009B4000674BC55D24402F5D2020B0653D273021C
:1009C4000B067FFF020B067FFF020B06900000E080
:1009D400541F702F900003E0FD7E00900002E0FCA5
:1009E4007B004206EB4205BE0114BD00119012D2F9
:1009F400E493FE30E503020B067FFF020B067FFF44
:100A0400020B06900000E0FE53061F7D00BE0205A7
:100A1400BD00028003020ADE900003E0FD7E009028
:100A24000002E0FC7B004206EB4205EE4D6003024F
:100A34000ADA900005E0FD7E00900004E0FC7B00F3
:100A44004206EB4205BE0106BD0003020ACEBE0209
:100A540005BD00028060BE0305BD00028044BE04E3
:100A640005BD00028028BE8105BD00028052BE8201
:100A740005BD00028036BE8305BD0002801ABE8417
:100A840051BD004E74BF55DE4403F5DE8074747F9F
:100A940055DE440CF5DE806A74BF55D64403F5D6A2
:100AA4008060747F55D6440CF5D6805674BF55D4F7
:100AB4004403F5D4804C747F55D4440CF5D480425F
:100AC40074BF55D24403F5D28038747F55D2440C98
:100AD400F5D27FFF802C7FFF80287FFF8024900049
:100AE40000E4F0900001F0AD22AE23C3ED9402EED9
:100AF400940040047F02800AAF2280067FFF8002B8
:100B04007FFFBFFF077524FF75DCCF22EF24F7407A
:100B1400068FDD75DCC02275DD0075DCC02274052E
:100B2400B52402805D7406B52466AE22AF23C3EEFD
:100B34009408EF9400920140067C087D008004AC88
:100B440022AD237D00C3ED9C50198D027B00ED2561
:100B540025F582E43526F583E493F98A828B83F0C4
:100B64000D80E28C037D00EEC39BFEEF9DFF8E2281
:100B74008F23EC2525F525E43526F5268CDD63DC6D
:100B84004022E5E35480FFE5224FF5E375DC0222C1
:100B940075DD0075DC02227420B5240D30DE1012E0
:100BA4000CF475DD0085DCDC2275DD0043DC0222FB
:100BB40075D30074FC55D24402F5D22220D9030225
:100BC4000C6BE5D9540FFFADD95305307E00BD0041
:100BD40005BE0002801CBD1005BE00028036BD208B
:100BE40005BE00028043BD3006BE0003020C510264
:100BF4000C69EF24FB5003020C69EF2F900C047373
:100C0400800880618009805D805B120B9B80561296
:100C14000F568051EF24FB404CEF2F900C23738030
:100C24004480428040803E803CEF24FB4037EF2FDD
:100C3400900C38738008800B800E80298027120B5B
:100C4400228022120BB4801D120F488018EF24FB5F
:100C54004013EF2F900C5C73800880098007800597
:100C64008003120744C2D930D81A75DC0275D21237
:100C740075D41275E300C2DAC2D9C2D8900096E4E2
:100C8400F0120CEC10DA0122E5DA20E20375D8FF49
:100C94002275E20053E27F43E22975E30053E2BF89
:100CA40053D1FB75D18043D1012243E10443E102D6
:100CB40043E10143D81FD2EAD2AF227E007F008EE7
:100CC400EC8FED7E0A7F008EEE8FEF7E147F008E18
:100CD400E48FE575EB0C75D21275D41275EA407584
:030CE400DC02220D
:010CE80032D9
:010CEA0032D7
:100CEC009000ECE4F0C202227F00C3E5DB94079293
:100CFC000340067D077E008004ADDB7E008F037C05
:100D0C0000C3EB9DEC64808EF063F08095F0501C7A
:100D1C00EF24E5FDE43400FEEF2400F582E434001A
:100D2C00F583E0FC8D828E83F00F80BE227F008FD6
:100D3C00057E00C3ED9407EE9400501CEF2400FDDB
:100D4C00E43400FEEF24E5F582E43400F583E0FCA6
:100D5C008D828E83F00F80D790000722900002E0E6
:100D6C00FF9000EEF0E020E0339000E5E0FCA3E023
:100D7C00FDA3E0FEA3E0FFBCB022BD041FBE001C1F
:100D8C00BF001975E200C2AF75890090C3501206FE
:100D9C00C290C3501206C212380080FE227E007F21
:100DAC00003002200EBE00010F900005C007C006E7
:100DBC001206C2D006D007C3EE9450EF94C340E1A4
:100DCC007582002275820122751D009000EEE06094
:100DDC0003751D01851D82222002259000EFE0FF86
:100DEC00601E8FD553D4FCD202BF400F120DA9E563
:100DFC0082600875D50053D4FCD2029000EFE4F069
:100E0C0022AF829000EEE06041C007120DA9E5828E
:100E1C00D0077003F582229000EFE0FEBE40005038
:100E2C00207D0074402EFEE43DFDEE2414F582ED91
:100E3C003400F583EFF09000EFE02401F0758201AF
:100E4C0022C007120DE4D00780BF75820022AFF0DC
:100E5C00AE83E582900099F0EEA3F0EFA3F0900042
:100E6C00EEE07003020F10900097E0FEA3E0FFC3CA
:100E7C00E49E74808FF063F08095F04003020F10B5
:100E8C00C007C006120DA9E582D006D0077003F585
:100E9C008222900099E0FBA3E0FCA3E0FDC3E49E5A
:100EAC0074808FF063F08095F050BC9000EFE0FA06
:100EBC00BA400050498A017A00744029F9E43AFAA0
:100ECC00E92414F9EA3400FA8B828C838DF0120F2A
:100EDC00ECF8A3AB82AC83900099EBF0ECA3F0EDB3
:100EEC00A3F089828A83E8F09000EFE02401F01EE1
:100EFC00BEFF011F900097EEF0EFA3F0809F120D44
:100F0C00E4020E73758200229000ECE0F5822290D0
:100F1C0000ECE07003F582229000EDE02414F582E1
:100F2C00E43400F583E0FF9000EDE004F09000EC79
:100F3C00E014F0E0700353D4F38F822275D5007463
:100F4C00FC55D44402F5D4C2022230DE199000ECD8
:100F5C00E5DBF09000EDE4F09000ECE0600874F359
:070F6C0055D44408F5D4221E
:100F740022AF82BF0200503EEF75F002A424F0FDC0
:100F8400740035F0FE90009CE0FBA3E0FC8D828EA3
:100F940083EBF0ECA3F0BF00028005BF0118800BC7
:100FA40090009EE024FF9288D2A82290009EE0FF49
:100FB40024FF928AD2AA22AF82BF02005028BF0027
:100FC400028005BF01088004C2A88002C2AAEF758E
:100FD400F002A424F0FE740035F0FF8E828F837437
:070FE40074F0740FA3F0226A
:100FEC0020F71430F6148883A88220F507E6A8832E
:0C0FFC0075830022E280F7E49322E022DB
:101008009000F4E0FF7E000FBF00010E7410C0E0F6
:10101800E4C0E08F828E83121128AE82158115817B
:101028009000F5E0FFEEB50701229000F4E0249F60
:10103800F582E43400F583E599F09000F4EEF022AF
:1010480030044A9000F6E0FF9000F7E0FEEFB506A6
:1010580005A204C204229000F7E024AFF582E4342C
:1010680000F583E0F5999000F7E0FF7E000FBF00E0
:10107800010E7410C0E0E4C0E08F828E8312112844
:0E108800AE82AF83158115819000F7EEF02245
:101096009000F8E0FF7E000FBF00010E7410C0E064
:1010A600E4C0E08F828E83121128AE8215811581ED
:1010B6009000F9E0FFEEB50701229000F8E024BFAA
:1010C600F582E43400F583E5C1F09000F8EEF022F5
:1010D60030054A9000FAE0FF9000FBE0FEEFB5060F
:1010E60005A205C205229000FBE024CFF582E43478
:1010F60000F583E0F5C19000FBE0FF7E000FBF0026
:10110600010E7410C0E0E4C0E08F828E83121128B5
:0E111600AE82AF83158115819000FBEEF022B2
:1011240075820022C01C85811CAE82E583FF33E4F6
:1011340033FD6009C3E49EFBE49FFC80048E038FAF
:1011440004E51C24FCF808E630E70FE51C24FCF851
:10115400C3E496FE08E496FF800AE51C24FCF886A6
:1011640006088607C005C006C0078B828C8312114F
:1011740096AE82AF8315811581D005ED600DC3E471
:101184009EFCE49FFD8C828D8380048E828F83D0AD
:101194001C22C01C85811CAE82AF837D007C00E5CF
:1011A4001C24FCF808E6235401FB702FE51C24FCE6
:1011B400F8E626F608E633F6E51C24FCF8C3EE96BA
:1011C400EF08965011E51C24FCF808E618C313C672
:1011D40013C608F680050C8C0580C4E51C24FCF8B5
:1011E400C3EE96EF0896400DE51C24FCF8EEC3967A
:1011F400FEEF0896FFE51C24FCF808E618C313C6A6
:1012040013C608F68D041DEC70D18E828F83D01C1A
:0112140022B7
:041215000B000A00C0
:1012190000000000000000000000000000000001C4
:1012290000000000000000000000000000000304AE
:10123900000002000000000001010101010101019B
:101249000000020202020202020200000303030379
:101259000303030300000404040404040404000059
:101269000102040810204080000001020408102037
:1012790040800000010204081020408000000102A3
:101289000408102040800000FFFFFFFFFFFFFFFF61
:10129900FFFFFF00FFFF0102FFFFFFFFFFFFFFFF4F
:1012A900FFFFFFFFFFFFFFFF03FFFFFFFFFFFFFF41
:1012B90012011001EF020108091250C501010102D2
:1012C9000301090246000201008064080B000202C2
:1012D90002010409040000010202010405240010AE
:1012E9000104240202052406000107058103080000
:1012F9004009040100020A00000407050202400037
:101309000007058202400000040309040C0343009E
:1013190048003500350078001603430048003500C1
:10132900350078006400750069006E006F001603CF
:101339004300440043002000530065007200690027
:1013490061006C000E0344006500710069006E00C5
:0213590067002B
:04135B00C5030001C5
:02135F0000008C
:0B13610000E100000000080000000098
:04136C00740F740F77
:041370000000000079
:041374000000000075
:00000001FF
